:100000000C9400010C948A1B0C94631B0C94280123
:100010000C9428010C9428010C9428010C942801BC
:100020000C9428010C9428010C9428010C942801AC
:100030000C9428010C9428010C9498030C9428012A
:100040000C94E3260C9428010C94D71B0C94B11B40
:100050000C9428010C9428010C9428010C9428017C
:100060000C94F8040C9428019529AB29AB29A929F3
:10007000AB299329AB29AB29AB298729AB29AB291C
:100080009C29A729A529AB29AB29AB29A3295B5317
:10009000544F505D005B53544152545D005B5354C8
:1000A0004F505D002D007C005B53544152545D0065
:1000B0005B53544F505D005B53544152545D005BA1
:1000C00053544152545D4F4B5B53544F505D005B52
:1000D00053544152545D4F4B5B53544F505D005B42
:1000E00053544152545D4F4B5B53544F505D005B32
:1000F00053544152545D4F4B5B53544F505D005B22
:1001000053544152545D4F4B5B53544F505D005B11
:1001100053544152545D4F4B5B53544F505D005B01
:1001200053544152545D4F4B5B53544F505D004DFF
:10013000656D467265653D0031383A34383A35317F
:10014000004D61792032362032303139005B535412
:100150004F505D005B53544152545D005B53544F0C
:10016000505D00333238502D56657273696F6E3AA8
:10017000312E302E30005B53544152545D00496E95
:1001800069742E2E2E001F1C1F1E1F1E1F1F1E1FD8
:100190001E1F7C3C3E5E2B3D3F2F5B5D3B2C2A228D
:1001A0005C0000000000240027002A00000000007E
:1001B000250028002B000000000023002600290055
:1001C00004040404040404040202020202020303FD
:1001D0000303030301020408102040800102040805
:1001E0001020010204081020000000080002010095
:1001F000000304070000000000000000342E7A28ED
:1002000011241FBECFEFD8E0DEBFCDBF12E0A0E0CB
:10021000B1E0E8EEFEE602C005900D92A636B10709
:10022000D9F726E0A6E6B2E001C01D92AB3AB207CC
:10023000E1F710E0CFEFD0E004C02197FE010E946B
:100240005933CE3FD107C9F70E947E280C946737F7
:100250000C94000085ED8093BC008091BC0084FD6F
:10026000FCCF10922D03089540918602262F30E096
:10027000240F311D21323105DCF420912D0324306F
:10028000C9F4FC0180E090E0861758F430918602B2
:100290002191DC01AA59BD4FA30FB11D2C930196EA
:1002A000F3CF80918602680F6093860280E0089504
:1002B00081E0089582E00895089508950895E091F9
:1002C000E6028091E502E81730F4F0E0E951FD4FD5
:1002D000808190E008958FEF9FEF08959091E6025E
:1002E0008091E502981750F4E92FF0E0E951FD4FB5
:1002F000208130E09F5F9093E60202C02FEF3FEF36
:10030000C90108958091E50290E02091E602821BE8
:1003100091090895CF92DF92EF92FF920F931F936E
:10032000CF93DF937C01CB018A0120912E032223FE
:1003300089F0EB016B01C40ED51ECC15DD0569F00B
:100340006991D701ED91FC910190F081E02DC701F9
:100350000995F3CF642F0E943401C801DF91CF913A
:100360001F910F91FF90EF90DF90CF900895CF9362
:10037000DF931F92CDB7DEB7698320912E0322232E
:10038000D1F020915103203240F021E030E0FC0117
:100390003383228380E090E015C080912F03E82F03
:1003A000F0E0E05DFC4F998190838F5F80932F0395
:1003B0008093510305C061E0CE0101960E94340193
:1003C00081E090E00F90DF91CF91089580E090E080
:1003D0000895009781F0DC010D900020E9F7FC0101
:1003E000CD010197E817F90731F021912613FACFD3
:1003F00081E090E0089580E090E008950F931F93CE
:10040000CF93DF9300D0CDB7DEB78B011092A60655
:100410001092A50640E050E0BE016F5F7F4F0E9442
:10042000FB302091A5063091A6062232310559F005
:10043000E981FA812081211106C0611520E8720747
:100440008105910540F081E090E0F801918380837F
:1004500080E090E004C0F80111821082CB010F907F
:100460000F90DF91CF911F910F910895CF92DF925E
:10047000EF92FF920F931F93CF93DF930097C1F0FA
:100480007B018C016B018FEFC81AD80AC6010E944C
:10049000DA2FEC01009761F0A60160E070E00E94A5
:1004A0004834A701B801CE010E943F34CE0102C0FA
:1004B00080E090E0DF91CF911F910F91FF90EF903E
:1004C000DF90CF900895009719F16115710501F142
:1004D000FC0101900020E9F73197E81BF90BDB01E3
:1004E0000D900020E9F71197AD01461B570BE4175B
:1004F000F50770F0E41BF50B8E0F9F1F0E947D34F3
:1005000031E020E0892B09F030E0832F922F08950D
:1005100080E090E008950F931F93CF93DF9300D076
:10052000CDB7DEB71092080101E082E593E00E94AA
:100530002A19892BA9F082E593E00E940819182F47
:1005400089831A8241E050E0BE016F5F7F4F8CE4E7
:1005500094E00E94721A1A3041F70093B402E5CF7A
:100560000F900F90DF91CF911F910F91089580917F
:10057000B102882361F09FB7F8942091B102809175
:10058000AA02213019F48DBB9FBF08958FBF089533
:100590008EBD00000DB407FEFDCF8EB508950F93FC
:1005A0001F93CF93DF93EB01FC0187A18B01040F15
:1005B000151F811120C0E0919804F0919904409199
:1005C0009704542F5095652FC017D107D9F027E015
:1005D00030E080818523808380910000809300003B
:1005E0008081842B80832150310998F78081862374
:1005F00080832196E9CFC017D10721F089910E940D
:10060000C802F9CFDF91CF911F910F9108952091EA
:10061000B102222399F04FB7F8942091B102213012
:1006200059F42DB32093AA023DB32091B002209536
:1006300023232DBB4FBF02C04093AA028CBD9DBD9A
:100640000895AF92BF92CF92DF92EF92FF920F93F5
:100650001F93CF93DF93F8942091AB02222311F0E4
:10066000789455C021E02093AB0278946C0123E488
:10067000C20ED11CF6012081222309F446C0EC01F0
:100680007C01F8E2EF0EF11CC7010E944318882399
:10069000E1F188A10E940926892BB9F15E0121E4CC
:1006A000A20EB11C88A10E940926892B71F1F501C7
:1006B00080819181009731F4F6011082C7010E9478
:1006C000501823C040E250E0BE010E94D6148C01B5
:1006D000892B91F38FA1882321F080E591E00E947E
:1006E000070360E08EA10E943226A8015527BE01B3
:1006F000CE010E94CF0261E08EA10E9432268FA11E
:10070000882381F20E94B702CDCF1092AB02DF9115
:10071000CF911F910F91FF90EF90DF90CF90BF90FE
:10072000AF9008958091B2029091B3020C9421038E
:100730001F920F920FB60F9211242F933F934F9356
:100740005F936F937F938F939F93AF93BF93EF9339
:10075000FF938091B2029091B3020E942103FF9116
:10076000EF91BF91AF919F918F917F916F915F9129
:100770004F913F912F910F900FBE0F901F901895A2
:10078000CF93CFB7F8948091A902811127C0EAECEA
:10079000F1E08491EEEDF1E09491E82FF0E0EE0FBE
:1007A000FF1FEE55FE4FA591B491EC91E92321F482
:1007B00061E08AE00E94322661E08AE00E946126C0
:1007C0008CB580618CBD8CB580648CBD61E08DE0A2
:1007D0000E94612661E08BE00E9461268091A9025F
:1007E0008F5F8093A902CFBFCF910895CF92DF9200
:1007F000EF92FF920F931F93CF93DF93EC0181E071
:1008000080932E0388E68093500310922F0310925A
:10081000510360E08AE394E00E94B70181E00E9406
:10082000801F87E090E00E94EA208AE394E00E9423
:100830006E018F77982F92959F701AEF082F919FD6
:10084000000D11248AE394E00E946E019C0133277D
:1008500094E0359527959A95E1F7F82E129FF00CC4
:1008600011248AE394E00E946E019C01332744E046
:10087000359527954A95E1F7E82E129FE00C112453
:100880008AE394E00E946E018AE394E00E946E0184
:100890009C01332754E0359527955A95E1F7D82EDA
:1008A000129FD00C11248AE394E00E946E019C01F7
:1008B000332764E0359527956A95E1F7C82E129F96
:1008C000C00C11248AE394E00E946E019C0133273E
:1008D00074E0359527957A95E1F7129F800D1124E4
:1008E0008883C982DA82EB82FC820D83CE01DF919C
:1008F000CF911F910F91FF90EF90DF90CF900895CF
:100900008F929F92AF92BF92CF92DF92EF92FF921F
:10091000CF93DF93EC016A017B0180E8C81A83E47E
:10092000D80A8DE6E80A88E3F80A8CE3882E912C31
:10093000A12CB12CC701B601A50194010E94B232CD
:100940006D83CA01B901A50194010E94B2326C8382
:10095000C701B60120E13EE040E050E00E94B23223
:10096000CA01B90128E130E040E050E00E94B23213
:100970006B83C701B60120E831E541E050E00E94F9
:10098000B23218824881542F537081E009F080E020
:1009900090E0BC0163597E4F2617370738F0281BBB
:1009A000390B2D5631404F5F4883ECCF81E089836E
:1009B0008981E82FF0E0EB57FE4FE491511103C01D
:1009C000823009F4EF5FF0E02E173F0720F02E1B76
:1009D0003F0B8F5FECCF2F5F2A83DF91CF91FF908A
:1009E000EF90DF90CF90BF90AF909F908F90089541
:1009F0001F920F920FB60F9211242F933F934F9394
:100A00005F936F937F938F939F93AF93BF93EF9376
:100A1000FF938091B900887F803609F49CC068F507
:100A2000883209F45BC090F4803109F454C038F482
:100A3000882309F4F6C0883009F44DC0F6C0883127
:100A400009F44CC0803209F45DC0EFC0803409F471
:100A500068C048F4803309F455C0883309F0E5C014
:100A600080932B03D8C0803509F44FC0883509F432
:100A70005DC0883409F0D9C0D6C0883909F4C7C030
:100A8000A8F4883709F467C038F4883609F463C0DD
:100A9000803709F460C0C9C0883809F4B8C080390B
:100AA00009F45FC0803809F0C0C05BC0803B09F426
:100AB00086C038F4803A09F466C0883A09F47FC0E9
:100AC000B4C0803C09F4A7C0883C09F4A4C0883BAA
:100AD00009F48AC0AAC08091080310C090912A032B
:100AE00080912903981770F5E0912A0381E08E0F19
:100AF00080932A03F0E0E75FFC4F80818093BB0086
:100B000085EC86C080932B038EC0E0912A0381E0A0
:100B10008E0F80932A038091BB00F0E0E75FFC4FCB
:100B2000808390912A03809129036EC0E0912A036B
:100B300081E08E0F80932A038091BB00F0E0E75F95
:100B4000FC4F808380912C0381116DC081E08093E4
:100B5000070384EA61C083E080932D031092A8020A
:100B6000CFCF8091A802803208F051C0E091A80256
:100B700081E08E0F8093A8028091BB00F0E0E857DF
:100B8000FD4F8083BDCF85EC8093BC0010922D0378
:100B90008091A802803230F4E091A802F0E0E8579A
:100BA000FD4F10826091A80270E0E091AC02F091DC
:100BB000AD0288E892E009951092A80236C084E060
:100BC00080932D031092870210928602E091AE026C
:100BD000F091AF02099580918602811105C081E0F4
:100BE0008093860210926602E091870281E08E0F68
:100BF00080938702F0E0EA59FD4F80818093BB002B
:100C00009091870280918602981708F479CF85E841
:100C10008093BC000AC085EC8093BC0010922D0329
:100C200004C010922B030E942A01FF91EF91BF9103
:100C3000AF919F918F917F916F915F914F913F9174
:100C40002F910F900FBE0F901F901895EF92FF926B
:100C50000F931F93CF93DF9328E2829FC00111244B
:100C60007C01E3E2EE0EF11C8B01EC016E96CE01ED
:100C70000E948C32F8018083CE0105960E948C324E
:100C8000F801818321960E5F1F4FEC16FD0679F760
:100C9000DF91CF911F910F91FF90EF900895CF9228
:100CA000DF92EF92FF920F931F93CF93DF93EB01AD
:100CB00028E2829FC00111246B01EDE1CE0ED11C10
:100CC0008B017C01E61AF70AC701800F911F0E9471
:100CD0008C32F80181938F01882319F0EC15FD0502
:100CE00099F71D8EDF91CF911F910F91FF90EF909B
:100CF000DF90CF900895CF92DF92EF92FF920F9303
:100D00001F93CF93DF930097F1F07B01EC016C010F
:100D100000E010E00E151F0559F0F6018191919148
:100D20006F01009711F00E9472300F5F1F4FF2CFDA
:100D3000CE01DF91CF911F910F91FF90EF90DF9047
:100D4000CF900C947230DF91CF911F910F91FF9053
:100D5000EF90DF90CF9008952F923F924F925F9245
:100D60006F927F928F929F92AF92BF92CF92DF92BB
:100D7000EF92FF920F931F93CF93DF9300D000D099
:100D8000CDB7DEB7262E5A834983009709F4C5C034
:100D90004C01FC01E12CF12C2191222349F02FEF91
:100DA000E216F10409F4B9C03FEFE31AF30AF4CFF5
:100DB0003C016E0C7F1C9C838B83C12CD12C00E0EA
:100DC00010E08B819C8186159705C9F0FC0181910B
:100DD000FC83EB83821108C0C114D10491F30F5F2F
:100DE0001F4FC12CD12CEDCF082E000C990B0E9467
:100DF0003832892B31F7FFEFCF1ADF0AE2CFCD2847
:100E000011F00F5F1F4F0115110509F483C02FEF7B
:100E1000E21AF20AC7010E94DA2F5C01009709F476
:100E20007EC0A70160E070E00E944834C801880FCE
:100E3000991F9C838B830E94DA2F6C01009709F421
:100E40005EC04B815C8160E070E00E9448341C828F
:100E50001B82412C512C68147904B9F1F4013190B2
:100E60004F01231021C041145104A9F3B201C5015F
:100E70000E943602009709F442C04B805C80FFEF6D
:100E80004F1A5F0A2B813C81220F331F2C0D3D1D11
:100E9000F90191838083A70160E070E0C5010E94A1
:100EA00048345C824B82D5CF832D032C000C990BE8
:100EB0000E943832892B79F6F501E40DF51D308258
:100EC00092012F5F3F4F2901C6CF4114510471F0A9
:100ED000B201C5010E943602009789F0EB81FC81C6
:100EE000EE0FFF1FEC0DFD1D91838083C5010E9455
:100EF0007230E981FA8111830083C60113C0C501F4
:100F00000E947230B801C6010E947B06E981FA8115
:100F10001182108280E090E005C000E010E0C12C5A
:100F2000D12CF0CF0F900F900F900F90DF91CF91B9
:100F30001F910F91FF90EF90DF90CF90BF90AF90F7
:100F40009F908F907F906F905F904F903F902F90E9
:100F500008958F929F92AF92BF92CF92DF92EF92BD
:100F6000FF920F931F93CF93DF9300D000D0CDB7A4
:100F7000DEB77C015B014A0169011C821B8284E0AF
:100F800090E00E94DA2F8C01009709F497C0FC01D1
:100F90001182108213821282F70101900020E9F77A
:100FA000CF0102978E159F0551F4F70180818A3297
:100FB00031F4F801B182A082C40101971BC06DE237
:100FC000C7010E94E901892BD1F41A821982BE015E
:100FD0006F5F7F4FC7010E94FE0129813A81232B59
:100FE00031F08EE991E0F6019183808367C0F801CA
:100FF0009183808393838283E12CF12C38C0AE01EE
:101000004D5F5F4F6DE2C7010E94AC067C018B8192
:101010009C81029719F081EA91E013C01A8219822B
:10102000BE016F5F7F4FF701808191810E94FE01B9
:10103000F8019183808389819A81892B31F084EA38
:1010400091E0F601918380833BC0BE016F5F7F4FCB
:10105000F701828193810E94FE01F80193838283CC
:1010600089819A81892B19F087EA91E0EACFF8010A
:10107000208131812815390528F4828193818815D2
:10108000990518F08AEA91E0DCCF2A153B0518F0A3
:101090008A159B0518F48DEA91E0D3CF8217930748
:1010A00018F480EB91E0CDCF6B817C81C7010E9469
:1010B0007B06F60111821082C8010FC0E12CF12CD1
:1010C0006B817C81C7010E947B060115110519F017
:1010D000C8010E94723080E090E00F900F900F9056
:1010E0000F90DF91CF911F910F91FF90EF90DF90C4
:1010F000CF90BF90AF909F908F9008959B0177FF06
:1011000002C0295F3F4F43E0359527954A95E1F7A7
:10111000FC01E20FF11D208130E0CB0168E070E0BE
:101120000E944533A90102C0559547958A95E2F77B
:10113000CA0181700895FC01CB019B0177FF02C0B9
:10114000295F3F4F43E0359527954A95E1F7E20F38
:10115000F11D68E070E00E94453321E030E001C0FD
:10116000220F8A95EAF78081282B208308952F92F9
:101170003F924F925F926F927F928F929F92AF9227
:10118000BF92CF92DF92EF92FF920F931F93CF9374
:10119000DF93CDB7DEB72E970FB6F894DEBF0FBE44
:1011A000CDBF7C876B871A0139011E821D82AE017B
:1011B0004B5F5F4F6CE20E94AC064C01009731F42C
:1011C00083EB91E0F80191838083B9C09A87898786
:1011D000412C512CC30101979E878D878D819E8163
:1011E0004816590608F0ABC0E985FA85E190F19000
:1011F000FA87E9876FE2C7010E94E901892B39F577
:101200009801A301B101C7010E94A9077C01F8015F
:1012100080819181892B41F0E114F10409F48FC0A0
:10122000C7010E9472308BC0F701C080D180F701E6
:10123000828193818C159D0508F47AC0B6018B8557
:101240009C850E949B08FFEFCF1ADF0AF0CF1C821B
:101250001B82AE014D5F5F4F6FE2C7010E94AC067B
:101260006C016B817C816230710531F086EB91E01D
:10127000F8019183808316C09801A301B101FC019C
:10128000808191810E94A9077C01F8018081918170
:10129000892B61F0E114F10419F0C7010E9472304A
:1012A0006B817C81C6010E947B0649C06DE2F6011C
:1012B000808191810E94E901892B29F48D859E8589
:1012C000F701938382831A821982BE016F5F7F4F79
:1012D000F601828193810E94FE0198878F83898124
:1012E0009A81892B19F089EB91E006C08F8198854E
:1012F000892B31F48DEB91E0F80191838083CDCF80
:10130000F701A080B180F701828193818A159B0546
:1013100050F0B5018B859C850E949B088F81988534
:10132000A80EB91EF0CF6B817C81C6010E947B069E
:10133000C7010E9472309FEF491A590A4FCF6D8141
:101340007E81C4010E947B062E960FB6F894DEBF04
:101350000FBECDBFDF91CF911F910F91FF90EF9006
:10136000DF90CF90BF90AF909F908F907F906F90C5
:101370005F904F903F902F900895CF93DF93EC01B3
:1013800061EC71E00E946302892BC1F466EC71E0AC
:10139000CE010E946302892B89F46BEC71E0CE01CF
:1013A0000E946302892B51F460ED71E0CE010E942E
:1013B000630221E0892B19F420E001C021E0822F93
:1013C00090E0DF91CF9108950E948921811102C0A0
:1013D0000C947C2108958F929F92AF92BF92CF92EE
:1013E000DF92EF92FF921F93CF93DF93CDB7DEB7DB
:1013F000EA970FB6F894DEBF0FBECDBFF82E0E945D
:101400008921811102C00E947C210E9489218111C1
:1014100002C00E947C210E948921811102C00E9489
:101420007C2140E065ED71E0CE0101960E940F2421
:10143000CE0101960E94962110E0BE016F5F7F4FA2
:10144000CE014C960E944722CE014C960E94431832
:10145000811105C0CE0101960E94962113C0CE01D4
:1014600088960E94BD09892B41F0F11205C0CE017A
:101470004C960E94501806C01F5FCE014C960E94E9
:101480005018DBCFCE0101960E94501888A5882302
:1014900009F433C140E058E460E082E594E00E9442
:1014A000802049E25EE167E082E594E00E948020CE
:1014B00040E050E066E082E594E00E9480206E010A
:1014C00088E2C80ED11C41E0B601CE0101960E940F
:1014D0000F248B819C8190937D0480937C048D816B
:1014E0009E81AF81B88580937E0490937F04A09302
:1014F0008004B093810489859A85AB85BC858093EF
:10150000820490938304A0938404B0938504DE0145
:101510001D96E6E8F4E08D91819384E0E339F807C5
:10152000D1F7EA8CFB8CF0929404E09293048AE762
:1015300094E00E944318882309F494C0F6010190B6
:101540000020E9F73197EC19FD09E530F10508F4C1
:1015500060C0CF01049766EC71E08C0D9D1D0E9468
:101560004F34892B09F055C080917C0490917D0403
:101570009C838B8380917E0490917F04A091800452
:10158000B09181048D839E83AF83B887809182045C
:1015900090918304A0918404B091850489879A87EF
:1015A000AB87BC878FE391E09A8389838DE0E6E87F
:1015B000F4E0DE011D9601900D928A95E1F7FB8E15
:1015C000EA8ECE0101960E944318882309F490C048
:1015D000E114F10409F447C0F70182849384A484E0
:1015E000B58440E050E0BA01CE0101960E94621835
:1015F00081113EC0C12CD12C7601B501A401CE01D0
:1016000001960E946218B701A6018AE794E00E9441
:101610006218F89440E050E064E082E594E00E94B3
:10162000802040E050E064E082E594E00E94802069
:1016300081E080939504809172040E940926892B91
:10164000D1F380919504882309F456C080917204E7
:101650000E940926892B09F44FC082E594E00E947C
:101660002103EFCFFFCF88248A94982C5401B9CF5F
:101670008A8D9B8D009709F4BDCF43E050E0BE01F9
:10168000695C7F4F0E94D614892B09F4B3CF1AAE40
:1016900067ED71E0CE01C7960E946D34892B09F089
:1016A000A9CF46E050E060E070E0CE0101960E94D4
:1016B0006218882309F49ECF14E0C12CD12C760146
:1016C00087E0CC0CDD1CEE1CFF1C8A95D1F7CE0107
:1016D00001960E9499188F779927092E000CAA0B62
:1016E000BB0BC82AD92AEA2AFB2A115049F785CF11
:1016F000C12CD12C760187CF7894EA960FB6F89456
:10170000DEBF0FBECDBFDF91CF911F91FF90EF9055
:10171000DF90CF90BF90AF909F908F9008958111F0
:1017200004C0F8944FEF5FEF08C044E6481B50E058
:10173000942F8827F894482B592B6BE082E594E08E
:101740000E948020789408954F925F926F927F92CA
:101750008F929F92AF92BF92CF92DF92EF92FF92C1
:101760000F931F93CF93DF93CDB7DEB7C254D10948
:101770000FB6F894DEBF0FBECDBF8C014DB65EB67E
:1017800040E050E06CE30E94F5197C0140E050E03D
:101790006EE3C8010E94F5195C01FF248FEFE81A7F
:1017A000F80AA7016CE3C8010E94F5196C01BB247B
:1017B000A5014F5F5F4F6EE3C8010E94F5194C0110
:1017C0009501A701B801CE01CD960E941E1B940180
:1017D0003327A60155274F5F5F4FB801CE01C7964B
:1017E0000E941E1B6BED71E08E010F5F1F4FC80141
:1017F0000E94091BBE01635C7F4FCE014F960E9481
:10180000EF1AB801CE014F960E94B820F82ECE01F3
:101810004F960E94EA1AC8010E94EA1AFF2059F066
:10182000BE01695C7F4FC8010E94EF1A0E94E40963
:101830008FE191E0E1C36EED71E0C8010E94091BE8
:10184000BE01635C7F4FCE014F960E94EF1AB80134
:10185000CE014F960E94B820F82ECE014F960E94DE
:10186000EA1AC8010E94EA1AFF20B9F0BE01695CB9
:101870007F4FCE014F960E94EF1ABE01615E7F4FEF
:10188000C8010E94EF1AC8010E94EA19862F90E051
:101890000E94EB098FE091E0FDC061EE71E0C801AC
:1018A0000E94091BBE01635C7F4FCE014F960E94D0
:1018B000EF1AB801CE014F960E94B820F82ECE0143
:1018C0004F960E94EA1AC8010E94EA1AFF20B1F05E
:1018D000BE01695C7F4FCE014F960E94EF1ABE0198
:1018E000615E7F4FC8010E94EF1AC8010E94EA1989
:1018F000862F0E948F0B8FEF90E0CCC064EE71E0DA
:10190000C8010E94091BBE01635C7F4FCE014F9648
:101910000E94EF1AB801CE014F960E94B820F82E0F
:10192000CE014F960E94EA1AC8010E94EA1AFF20CF
:1019300009F469C0BE01695C7F4FCE018B960E949D
:10194000EF1ABE01655D7F4FCE0185960E94EF1AAA
:1019500040E050E06CE2CE0185960E94F5197C01D2
:10196000FF24970140E050E0BE016B5D7F4FCE0148
:101970004F960E941E1B29A53AA5A7014F5F5F4FF6
:10198000BE016B5D7F4FC8010E941E1B8BA19CA1F5
:10199000892BA9F18D819E81009789F1FF24F39411
:1019A000F80ECF2CD12CC6010E94DA2F3C01FF206B
:1019B00041F06114710429F0A601B301C8010E942D
:1019C0005A21CE014F960E94EA1998E2699F600160
:1019D00011244301E12CF12CF40161914F015601D6
:1019E000AE0CBF1C611177C360E0C5010E94943248
:1019F000C3010E9472308FEE90E00E944E21C80118
:101A00000E94EA1ABFC267EE71E0C8010E94091B7A
:101A1000BE01635C7F4FCE014F960E94EF1AB80162
:101A2000CE014F960E94B820F82ECE014F960E940C
:101A3000EA1AC8010E94EA1AFF20A1F1BE01695CFE
:101A40007F4FCE014F960E94EF1ABE01615E7F4F1D
:101A5000C8010E94EF1AC8010E94EA1998E2699F22
:101A6000B00111246B01E3E2CE0ED11CCB014E96E6
:101A70007C016FEFC7010E9494326FEFC70105969A
:101A80000E9494329FEFE91AF90AEC14FD0489F7D9
:101A90008FED90E00E944E21C8010E94EA1ACE010B
:101AA0004F96ADC26AEE71E0C8010E94091BBE01EB
:101AB000635C7F4FCE014F960E94EF1AB801CE01B2
:101AC0004F960E94B820F82ECE014F960E94EA1A37
:101AD000C8010E94EA1AFF2009F400C1BE01695C36
:101AE0007F4FCE01C1960E94EF1ABE016F5C7F4FFF
:101AF000CE018B960E94EF1A40E050E06CE2CE01DE
:101B00008B960E94F5196C0140E050E06AE3CE012B
:101B10008B960E94F5197C01DD24960140E050E08F
:101B2000BE01655D7F4FCE0185960E941E1BCE01D2
:101B300085960E94EA19662EFF24A6014F5F5F4F2B
:101B40009701BE01655D7F4FC8010E941E1BB80151
:101B5000CE0185960E94111AC8010E94EA1ACE0190
:101B600085960E94EA19762E2FA538A9A7014F5F06
:101B70005F4FBE01655D7F4FC8010E941E1BB8010B
:101B8000CE0185960E94111AC8010E94EA1AADA0E2
:101B9000BEA0A114B10409F440C0E9A4FAA4E11460
:101BA000F104D9F165014601EFEF8E1A9E0AF601A4
:101BB0008081082E000C990B0E943832892B11F07D
:101BC0006401F1CFF1E0EF1AF108EA0CFB1CF70118
:101BD0008081082E000C990B0E943832892B39F035
:101BE000EC14FD0420F0F1E0EF1AF108F0CF8FEFD4
:101BF000E81AF80AA7014C195D095AA749A7AC14BD
:101C0000BD0420F4B601C5010E943F34EDA1FEA140
:101C100089A59AA5E80FF91F108289A5882309F4E0
:101C200048C040E050E06DE2CE0185960E94F51973
:101C30007C01FF24970140E050E0BE016B5D7F4FC7
:101C4000CE014F960E941E1BCE014F960E94EA19AC
:101C5000A62E29A53AA5A7014F5F5F4FBE016B5D78
:101C60007F4FC8010E941E1BB801CE014F960E94F3
:101C7000111AC8010E94EA1ACE014F960E94EA1971
:101C8000B62E98E2699E60011124E72CF12CC70161
:101C90004E966A2D8C0D9D1D0E949432C70183962D
:101CA0006B2D8C0D9D1D0E949432CE014F960E948B
:101CB000EA1A63E672E0CE0185960E94D31A8FEC91
:101CC00090E00E944E21CE0185960E94EA1ACE0134
:101CD0008B960E94EA1ACE01C19691C16DEE71E019
:101CE000C8010E94091BBE01635C7F4FCE014F9665
:101CF0000E94EF1AB801CE014F960E94B820F82E2C
:101D0000CE014F960E94EA1AC8010E94EA1AFF20EB
:101D100009F444C0BE01695C7F4FCE0185960E94E4
:101D2000EF1ABE016B5D7F4FCE014F960E94EF1AF6
:101D3000EDB6FEB64BA15CA14F5F5F4FEDB7FEB7AE
:101D4000E41BF50B0FB6F894FEBF0FBEEDBF8DB7C9
:101D50009EB701966C014115510529F0BC01CE01D9
:101D60004F960E945A21C6010E941132AB01BC015C
:101D7000C8010E948004C8010E94DC1F8FEB90E024
:101D80000E944E210FB6F894FEBE0FBEEDBECE01EE
:101D90004F960E94EA1ACE01859631C160EF71E03C
:101DA000C8010E94091BBE01635C7F4FCE014F96A4
:101DB0000E94EF1AB801CE014F960E94B820F82E6B
:101DC000CE014F960E94EA1AC8010E94EA1AFF202B
:101DD00009F445C0BE01695C7F4FCE018B960E941D
:101DE000EF1ABE01655D7F4FCE0185960E94EF1A06
:101DF00040E050E06CE2CE0185960E94F5199C010E
:101E0000332740E050E0BE016B5D7F4FCE014F961F
:101E10000E941E1B8BA19CA1892B09F4B3C0CE018B
:101E20004F960E94EA19862FB8010E944F0687EB51
:101E300090E00E944E216AE070E080E090E00E9415
:101E40009D26C8010E946A1F0E947C1F6AE070E004
:101E500080E090E00E949D2680EB90E066C063EFFA
:101E600071E0C8010E94091BBE01635C7F4FCE0177
:101E70004F960E94EF1AB801CE014F960E94B820EB
:101E8000F82ECE014F960E94EA1AC8010E94EA1A63
:101E9000FF2009F482C0BE01695C7F4FCE018B96A2
:101EA0000E94EF1ABE01655D7F4FCE0185960E94AC
:101EB000EF1A40E050E06CE2CE0185960E94F519E1
:101EC0009C01332740E050E0BE016B5D7F4FCE01A7
:101ED0004F960E941E1B8BA19CA1892B09F452C016
:101EE000CE014F960E94EA19862FB8010E9426065D
:101EF00088EA90E00E944E216AE070E080E090E085
:101F00000E949D266801E12CF12CF601B080A18091
:101F1000FFEFBF1213C00E947C1F6AE070E080E0F8
:101F200090E00E949D268DE990E00E944E216AE09B
:101F300070E080E090E00E949D2624C0E114F1044E
:101F400021F086EA90E00E9433216B2D70E080E062
:101F500090E04AE00E94CE2384EA90E00E94332180
:101F60006A2D70E080E090E04AE00E94CE238FEF7F
:101F7000E81AF80A92E0C90ED11CE5E0EE16F10469
:101F800021F6C9CFCE014F960E94EA1ACE0185965E
:101F90000E94EA1ACE018B9632C066EF71E0C8014A
:101FA0000E94091BBE01635C7F4FCE014F960E94C9
:101FB000EF1AB801CE014F960E94B820F82ECE013C
:101FC0004F960E94EA1AC8010E94EA1AFF20C9F03F
:101FD000BE01695C7F4FC8010E94EF1A85E990E05D
:101FE0000E944E2164E670E080E090E00E949D2611
:101FF0000E9402258EE890E00E944E21C8010E94B6
:10200000EA1A8FE291E00E9433218091A706909115
:10201000A806009729F40B5A16401A83098319C0A1
:10202000081B190BE091A906F091AA0680E090E048
:10203000309759F09C012E5F3F4F80819181820F34
:10204000931F0280F381E02DF3CF800F911F9A83BD
:102050008983C980DA800D2C000CEE08FF08F7FE9A
:102060000EC06DE282E593E00E9462196627772731
:10207000CB016C197D098E099F094AE003C04AE033
:10208000C701B6010E94CE230E947C1FCE01C796D5
:102090000E94EA1ACE01CD960E94EA1A0FB6F89471
:1020A0005EBE0FBE4DBECE5BDF4F0FB6F894DEBFF7
:1020B0000FBECDBFDF91CF911F910F91FF90EF9099
:1020C000DF90CF90BF90AF909F908F907F906F9058
:1020D0005F904F900895FEE1EF16F10431F460E057
:1020E000C6014D960E9494327FCCC5010E94943265
:1020F0008FEFE81AF80A70CCDC015996ED91FC914B
:102100005A973097B9F083899489A589B689428511
:10211000538564857585841B950BA60BB70B8115BC
:1021200020E89207A105B10538F08FEF9FE7A0E006
:10213000B0E0089580E090E00895CF93DF931F9280
:10214000CDB7DEB76983DC01ED91FC910280F381AC
:10215000E02D41E050E0BE016F5F7F4F09950F9089
:10216000DF91CF910895CF93DF93EC018D81882388
:1021700079F18C8187FF28C06E857F858889998950
:1021800041E00E94441C882319F1EA8980E2E89F1B
:10219000F0011124E656FB4F3097D1F08D8182304B
:1021A00040F48B899C89AD89BE89848F958FA68FD9
:1021B000B78F8F89988DA98DBA8D938F828FB58BAC
:1021C000A48B8C818F778C83DF91CF910C94091C29
:1021D00080E0DF91CF910895FC01818D928D009771
:1021E00011F00C94B31008958F929F92AF92BF920A
:1021F000CF92DF92EF92FF920F931F93CF93DF93D3
:10220000EC018D81811102C080E078C00B891C89AE
:102210002D893E890417150726073707A8F36A0199
:102220007B01823029F4CA86DB86EC86FD860DC0F0
:10223000C114D104E104F10451F41E821F821886F6
:1022400019861A861B861C861D8681E057C08A84E3
:102250009B84AC84BD84EB8DFC8D258530E0275FAD
:102260003F4FB501A4014150510961097109022E86
:1022700004C076956795579547950A94D2F7D7018C
:10228000C6010197A109B10904C0B695A795979514
:1022900087952A95D2F784179507A607B70720F0E8
:1022A00089288A288B2871F44F89588D698D7A8DF9
:1022B0004E835F83688779874C015D018E010A5FD9
:1022C0001F4F16C0841B950BA60BB70BF5CF4E8185
:1022D0005F816885798598018B8D9C8D0E942E1D6C
:1022E00091E0891A9108A108B108882309F48CCFDC
:1022F00081149104A104B10451F795CFDF91CF91DE
:102300001F910F91FF90EF90DF90CF90BF90AF9013
:102310009F908F9008958F929F92AF92BF92CF928D
:10232000DF92EF92FF920F931F93CF93DF9300D032
:1023300000D0CDB7DEB77C0180E2689FF0011124A8
:10234000E656FB4F9385917121F0842F827409F03A
:102350008FC0142FD70152966C9352974091090168
:1023600050910A0160910B0170910C011E964D93E2
:102370005D936D937C9351974489558960E070E03B
:10238000BA0155274427828D938DA0E0B0E0482BF9
:10239000592B6A2B7B2BD70157964D935D936D93E9
:1023A0007C935A978385887159F4848D958DA68D79
:1023B000B78DF701838B948BA58BB68B81E012C010
:1023C000803109F055C097012D5E3F4FD7015B96D4
:1023D0008D919C915C970E94DE21882309F448C06E
:1023E00084E0F7018583812F8F70D70114968C9339
:1023F0001497F70116821782108611861A961D927D
:102400001D921D921C921D9716FF34C015968C913B
:10241000813071F511FF2CC0F7014389548965891A
:102420007689452B462B472B09F461C040E050E0EC
:10243000BA01C7010E94F4108823D1F0F701878800
:10244000908CA18CB28CC38CD48C82E090E0A0E004
:10245000B0E0F60180839183A283B3839E012F5F56
:102460003F4FB501A401C6010E942E1D811104C079
:1024700080E03DC081E03BC000E010E09801B50184
:10248000A401C6010E948D1C882391F389809A8043
:10249000AB80BC80D60157968C91803129F088EFB3
:1024A0009FEFAFEFBFE004C088EF9FEFA0E0B0E088
:1024B00088169906AA06BB0688F2D70157961D9280
:1024C0001D921D921C925A97F701138A148A158A3D
:1024D000168A848180688483C7010E94B310882390
:1024E00039F240E050E0BA01C7010E94F4100F90A9
:1024F0000F900F900F90DF91CF911F910F91FF9050
:10250000EF90DF90CF90BF90AF909F908F90089505
:10251000CF93DF93EC010E94B310882311F01D824A
:1025200081E0DF91CF9108953F924F925F926F9239
:102530007F928F929F92AF92BF92CF92DF92EF9253
:10254000FF920F931F93CF93DF93CDB7DEB72C97F6
:102550000FB6F894DEBF0FBECDBF5C01DC015B9609
:102560008D909C905C971696CD90DD90ED90FC90B0
:102570001997C114D104E104F10439F0BFEFCB1A6B
:10258000DB0AEB0AFB0A312C07C0F401C080D180C2
:10259000E280F38033243394F40181859285A3850E
:1025A000B4859C01AD012F5F3F4F4F4F5F4F29878F
:1025B0003A874B875C87260137011D821E821F8266
:1025C0001886F40181859285A385B4852D813E818D
:1025D0004F815885281739074A075B0708F063C001
:1025E00089859A85AB85BC858C159D05AE05BF0593
:1025F00050F482E0C82ED12CE12CF12C92E0492E2F
:10260000512C612C712C9E012F5F3F4FB701A60109
:10261000C4010E942E1D882309F445C089819A8136
:10262000AB81BC81892B8A2B8B2B41F02601370192
:102630009FEF491A590A690A790A05C0C414D504DA
:10264000E604F70491F02D813E814F8158852F5F7C
:102650003F4F4F4F5F4F2D833E834F8358873FEF50
:10266000C31AD30AE30AF30AACCF0FEF1FEF2FEF21
:102670003FE0B301A201C4010E948D1C882399F0A0
:10268000D50116964D915D916D917C9119974115EB
:1026900051056105710549F093018201C4010E9451
:1026A0008D1C811102C080E02AC0D50116964D9282
:1026B0005D926D927C921997332051F0D301C20143
:1026C0000196A11DB11DF40180839183A283B38380
:1026D000F5018789908DA18DB28D892B8A2B8B2B4B
:1026E00069F4D50157964D925D926D927C925A97FE
:1026F00014968C911497806814968C9381E02C9694
:102700000FB6F894DEBF0FBECDBFDF91CF911F9102
:102710000F91FF90EF90DF90CF90BF90AF909F9080
:102720008F907F906F905F904F903F900895CF93E0
:10273000DF93EC018091DF02811109C081E0809379
:10274000DF028091EF039091F0030E94070360E0A5
:102750008C81DF91CF910C94322661E0FC01848161
:102760000E9432268091DF02882321F01092DF023E
:102770000C94B70208958FEF0C94C8020F931F9327
:10278000CF93DF93EB010E94D7268B010E94BB13EE
:102790008F3F49F00E94D726601B710B6C177D0795
:1027A000A8F380E001C081E0DF91CF911F910F91EC
:1027B0000895CF93DF93EC018E81882389F08F8178
:1027C00098859C012F5F3F4F38872F83823092403E
:1027D00018F40E94BB13F3CFCE010E94AD131E82EA
:1027E000DF91CF9108958F929F92AF92BF92FF9207
:1027F0000F931F93CF93DF93EC01F62E49015A01FB
:102800000E94D913CE010E9497136CE271E0CE01B1
:102810000E94BE138F2D80640E94C80208E110E060
:10282000D501C401002E04C0B695A795979587954C
:102830000A94D2F70E94C80208501109083F8FEF8E
:10284000180771F7FF2029F088E0F81204C087E824
:1028500003C085E901C08FEF0E94C80210E00E940A
:10286000BB138A8787FF04C01F3F11F01F5FF7CF9C
:10287000DF91CF911F910F91FF90BF90AF909F90EC
:102880008F900895AF92BF92CF92DF92EF92FF9216
:102890000F931F93CF93DF93EC016901C801820F5F
:1028A000931F8130924008F070C08E81882371F0B0
:1028B00088819981AA81BB8184179507A607B707EC
:1028C00029F48F819885C816D906B0F548835983B5
:1028D0006A837B838B85833039F089E0440F551FF1
:1028E000661F771F8A95D1F79A01AB0161E1CE018E
:1028F0000E94F313882319F083E08D8346C00E9461
:10290000D7265B010E94BB138A878F3F49F40E9440
:10291000D7266A197B096D327140A0F38FE003C09E
:102920008E3F31F08DE08D83CE010E94AD132DC01E
:1029300018861F8281E08E838F8198858C159D0576
:1029400040F40E94BB138F819885019698878F83EE
:10295000F3CF6701E00EF11EEC14FD0431F00E948C
:10296000BB13F60181936F01F7CF8F819885080F14
:10297000191F18870F838985882319F001151240C4
:1029800048F0CE010E94D91305C0CE010E94AD13BC
:1029900080E001C081E0DF91CF911F910F91FF9006
:1029A000EF90DF90CF90BF90AF9008952F923F921D
:1029B0004F925F926F927F928F929F92AF92BF924F
:1029C000CF92DF92EF92FF920F931F93CF93DF93FB
:1029D000EC016B014A018D81811103C08FEF9FEFE4
:1029E000D7C08C8180FFFACF4B885C886D887E8849
:1029F0004A855B856C857D85C401A0E0B0E09301CC
:102A00008201041B150B260B370B081719072A0721
:102A10003B0718F44201841A950A54011E0126E06E
:102A2000220E311CA114B10409F47EC04A855B85D5
:102A30006C857D852A0181E05822ED818B8D9C8DEE
:102A40008A019B01F9E03695279517950795FA9528
:102A5000D1F7E23061F4FC01828D938DA48DB58DA8
:102A6000BC01CD01600F711F821F931F3FC0FC018D
:102A700074807A94702241145104C9F4711017C003
:102A8000452B462B472B49F48F89988DA98DBA8DFC
:102A90008E839F83A887B9870AC04E815F8168852E
:102AA000798591010E942E1D882309F497CFEB8D23
:102AB000FC8D8E819F81A885B9850297A109B109F6
:102AC000058404C0880F991FAA1FBB1F0A94D2F760
:102AD0004685578560897189840F951FA61FB71F8A
:102AE000BC01CD01670D711D811D911D20E032E0FB
:102AF0002419350935012A153B0508F439012C81C3
:102B000026FD04C06114F2E07F0681F40091090102
:102B100010910A0120910B0130910C01601771078F
:102B200082079307B1F402C0C40132C040E00E94A2
:102B3000441C882309F452CFF201E656FB4FD6011C
:102B4000CF01860D971D8E179F0789F021912D9338
:102B5000FACF760183019201AB01BC0180919A0604
:102B600090919B060E944214882309F437CFC60C2B
:102B7000D71C8A859B85AC85BD85860D971DA11DBB
:102B8000B11D8A879B87AC87BD87A618B7084ACF37
:102B9000DF91CF911F910F91FF90EF90DF90CF9039
:102BA000BF90AF909F908F907F906F905F904F906D
:102BB0003F902F900895EF92FF920F931F93CF9322
:102BC000DF93EC017901411551056105710511F49F
:102BD00082E13CC08B85833039F089E0440F551F7A
:102BE000661F771F8A95D1F79A01AB0168E1CE0184
:102BF0000E94F313882311F084E028C08EEF0E9416
:102C0000C80287018EEFF81AF80181918F010E94A6
:102C1000C802E016F106C1F78FEF0E94C8028FEFDD
:102C20000E94C8020E94BB138A878F71853031F0E1
:102C300081E18D83CE010E94AD1309C068E572E089
:102C4000CE010E94BE13811107C085E18D83CE01A4
:102C50000E94AD1380E014C020E030E0A9016DE0D7
:102C6000CE010E94F313811109C00E94BB13811190
:102C700005C0CE010E94AD1381E002C084E1E6CF21
:102C8000DF91CF911F910F91FF90EF9008952F92B8
:102C90003F924F925F926F927F928F929F92AF92EC
:102CA000BF92CF92DF92EF92FF920F931F93CF9339
:102CB000DF9300D000D0CDB7DEB78C015B011A01E5
:102CC000DC0115968C9115978130C9F414968C917E
:102CD00081FF15C082FF1DC0F801438954896589B1
:102CE000768982859385A485B58584179507A6077F
:102CF000B70779F0C8010E94F41081110AC081E081
:102D000090E0D80113969C938E93129780E090E008
:102D100036C1610183C05B968D919C915C97FC01EB
:102D200074802FEF270D2A013B0139E076946794D8
:102D3000579447943A95D1F7722E74207A01F1E0B6
:102D4000FF22772009F476C080E092E08E199F0977
:102D500046018C159D0508F44C01D8015B962D9118
:102D60003C915C9716968D919D910D90BC91A02DF4
:102D70000297A109B109F901058404C0880F991FC0
:102D8000AA1FBB1F0A94D2F74685578560897189AF
:102D9000840F951FA61FB71F9C01AD01270D311D84
:102DA000411D511D29013A01811432E0930609F0B9
:102DB00088C08091090190910A01A0910B01B09106
:102DC0000C01481659066A067B0659F48FEF9FEFEF
:102DD000DC018093090190930A01A0930B01B09349
:102DE0000C019501B301A20180919A0690919B0676
:102DF0000E94DB15882309F482CF9EEFB91AC81808
:102E0000D908F80182859385A485B585880D991D1B
:102E1000A11DB11D82879387A487B587D8011A9613
:102E20004D915D916D917C911D97C114D10409F074
:102E300072CF87C0E114F10409F086CF16964D9148
:102E40005D916D917C911997411551056105710551
:102E500059F457968D919D910D90BC91A02D00979E
:102E6000A105B10541F521C09E012F5F3F4F0E9492
:102E70002E1D882309F44BCF89819A81AB81BC81B7
:102E8000F801238D348DF9012789203129F048EF8D
:102E90005FEF6FEF7FE004C048EF5FEF60E070E04E
:102EA00084179507A607B70730F0C8010E9494124F
:102EB00081114ACF24CFF80186839783A087B187F9
:102EC00043CFE114F10429F5D8011A964D915D9193
:102ED0006D917C911D9753968D919D910D90BC9114
:102EE000A02D481759076A077B0798F00E94091C14
:102EF000882309F404CF4092090150920A0160929C
:102F00000B0170920C018091E00281608093E002DD
:102F100008C041E0C301B2010E94441C882309F4A7
:102F2000EECED501F701E656FB4F9F01280D391D66
:102F30002E173F0719F08D918193FACFA80CB91C79
:102F40005ECFF80183899489A589B689841795078E
:102F5000A607B70738F4438B548B658B768B848137
:102F600080688483F801848183FD02C0C10107C0A9
:102F7000C8010E94B310882309F4C1CEF7CF0F9087
:102F80000F900F900F90DF91CF911F910F91FF90B5
:102F9000EF90DF90CF90BF90AF909F908F907F90F9
:102FA0006F905F904F903F902F900895CF93DF9355
:102FB000EC01898D9A8D009739F481E090E09B8334
:102FC0008A8380E090E00BC0FC01138212820E9491
:102FD0004716E98DFA8D22813381232B71F7DF911A
:102FE000CF910895FC01DB0112968D919C9113976E
:102FF0009383828383E691E09183808314968C91FE
:103000001497848315968C911597858316964D9108
:103010005D916D917C911997468357836087718785
:103020001A964D915D916D917C911D9742875387C2
:10303000648775871E964D915D916D917C91519736
:1030400046875787608B718B52968C915297828BF3
:1030500053964D915D916D917C915697438B548B16
:10306000658B768B57964D915D916D917C915A97BA
:10307000478B508F618F728F5B968D919C915C977F
:10308000948F838F0895DC015996ED91FC915A97A6
:10309000309721F081E09581911101C080E0089581
:1030A000CF93DF93EC01898D9A8D009741F00E94B8
:1030B0008812898D9A8D0E9472301A8E198EDF9136
:1030C000CF910895FC01818D928D009729F00E9487
:1030D000F41091E0811101C090E0892F0895FC0166
:1030E0001382128288EE93E0A0E0B0E0848395839F
:1030F000A683B7838FE391E091838083128E118E34
:1031000014860895CF93DF931F92CDB7DEB741E0C9
:1031100050E0BE016F5F7F4F0E94D614019719F4F3
:10312000898190E002C08FEF9FEF0F90DF91CF91E8
:103130000895FC01818D928D009711F00C948218F6
:103140008FEF9FEF08950F931F93CF93DF93FC01B1
:10315000818D928D0097B9F0EF010E9482188C0149
:103160000F3F8FEF180791F0898D9A8DFC014285F2
:1031700053856485758541505109610971090E9423
:10318000F410C80105C080E090E002C08FEF9FEF0F
:10319000DF91CF911F910F91089508950895CF92D7
:1031A000DF92EF92FF920F931F93CF93DF936C0107
:1031B0007A018B01C0E0D0E0CE15DF0581F0D801A7
:1031C0006D918D01D601ED91FC910190F081E02D82
:1031D000C6010995892B11F02196EECF7E01C7011A
:1031E000DF91CF911F910F91FF90EF90DF90CF90E3
:1031F0000895FC01538D448D252F30E0842F90E0FD
:10320000821B930B541710F0CF96089501970895E1
:10321000FC01918D828D981761F0828DDF01A80FDE
:10322000B11D5D968C91928D9F5F9F73928F90E000
:1032300008958FEF9FEF0895FC01918D828D98176F
:1032400031F0828DE80FF11D858D90E008958FEFAC
:103250009FEF0895FC01918D228D892F90E0805C75
:103260009F4F821B91098F739927089582E593E000
:103270000E942A1921E0892B09F420E0822F089569
:10328000FC01848DDF01A80FB11DA35ABF4F2C9103
:10329000848D90E001968F739927848FA689B789D2
:1032A0002C93A089B1898C91837080648C93938DC9
:1032B000848D981306C00288F389E02D80818F7D6C
:1032C00080830895EF92FF920F931F93CF93DF9324
:1032D000EC0181E0888F9B8D8C8D981305C0E88967
:1032E000F989808185FD26C0F62E0B8D10E00F5FD9
:1032F0001F4F0F731127E02E8C8DE8120CC00FB6F4
:1033000007FCFACFE889F989808185FFF5CFCE01E6
:103310000E944019F1CF8B8DFE01E80FF11DE35A99
:10332000FF4FF0829FB7F8940B8FEA89FB89808169
:1033300080620AC09FB7F894EE89FF896083E889AC
:10334000F98980818370806480839FBF81E090E0F1
:10335000DF91CF911F910F91FF90EF900895CF9340
:10336000DF93EC01888D8823C9F0EA89FB8980818D
:1033700085FD05C0A889B9898C9186FD0FC00FB65F
:1033800007FCF5CF808185FFF2CFA889B9898C91A0
:1033900085FFEDCFCE010E944019E7CFDF91CF919D
:1033A00008950E94361981110C948B0208950E9491
:1033B0002534CF93DF931F92CDB7DEB7698341E009
:1033C00050E0BE016F5F7F4F0E9447160F90DF9164
:1033D000CF910895FC0180819181009711F00C94A8
:1033E000113260E070E0CB010895CF93DF93FC01D0
:1033F000248135814217530778F4C081D181062E8C
:10340000000C770BCE01840F951F0E946234009749
:1034100019F08C1B9D0B02C08FEF9FEFDF91CF91B6
:1034200008950F931F93CF93DF938C01EB01FC0161
:1034300080819181009739F06881798161157105EA
:10344000A1F40E94723088819981F8019183808370
:103450008A819B81938382838C819D8195838483E0
:10346000198218821B821A820FC0F801428153818F
:103470002C813D814217530720F30E9476348C81C2
:103480009D81F801958384831D821C82DF91CF91F9
:103490001F910F9108950F931F93CF93DF93EC012A
:1034A00088819981009729F02A813B812617370767
:1034B00088F48B016F5F7F4F0E945F33009761F04C
:1034C000998388831B830A832C813D81232B11F4EC
:1034D000FC01108281E001C080E0DF91CF911F915B
:1034E0000F910895EF92FF920F931F93CF93DF9365
:1034F0006115710511F480E01CC041155105C1F042
:103500007B01EC018C819D818A01080F191FB80194
:10351000CE010E944B1A882371F3288139818C8156
:103520009D81B701820F931F0E9476341D830C8307
:1035300081E0DF91CF911F910F91FF90EF9008955F
:10354000CF93DF93EC0188819981009711F00E945D
:103550007230198218821D821C821B821A82DF91AE
:10356000CF910895EF92FF920F931F93CF93DF9324
:10357000EC017B018A01BA010E944B1A811104C03F
:10358000CE010E94A01A07C01D830C83B701888159
:1035900099810E947634CE01DF91CF911F910F91D6
:1035A000FF90EF900895CF93DF93EC0161157105C3
:1035B00059F0FB0101900020E9F73197AF01461B5C
:1035C000570B0E94B21A02C00E94A01ACE01DF91CE
:1035D000CF910895FC01808191810C947230FB01A0
:1035E000DC0111961C921E9213961C921E92129749
:1035F00015961C921E9214978617970749F06081C2
:1036000071816115710521F0448155810C94B21AC4
:103610000895FC0111821082138212821582148295
:103620006115710551F0FB0101900020E9F7319718
:10363000AF01461B570B0C94B21A0895BF92CF925C
:10364000DF92EF92FF920F931F93CF93DF937C0152
:103650006B018A01E9012417350720F4812F8901C4
:10366000C42FD82F63E672E0C7010E94091BD60160
:1036700014968D919C91159708171907C8F48C170B
:103680009D0708F4EC01D601ED91FC911197EC0F28
:10369000FD1FB08010826D917C91600F711FC7017A
:1036A0000E94D31AD601ED91FC91EC0FFD1FB08260
:1036B000C701DF91CF911F910F91FF90EF90DF90A5
:1036C000CF90BF9008951F920F920FB60F921124C2
:1036D0002F933F934F935F936F937F938F939F931A
:1036E000AF93BF93EF93FF93E0910201F091030139
:1036F0000995FF91EF91BF91AF919F918F917F912C
:103700006F915F914F913F912F910F900FBE0F904E
:103710001F9018951F920F920FB60F9211242F939E
:103720003F934F935F936F937F938F939F93AF9349
:10373000BF93EF93FF93E0910001F0910101099590
:10374000FF91EF91BF91AF919F918F917F916F9179
:103750005F914F913F912F910F900FBE0F901F904F
:1037600018951F920F920FB60F9211242F933F932B
:103770004F935F936F937F938F939F93AF93BF9379
:10378000EF93FF9382E593E00E944019FF91EF9140
:10379000BF91AF919F918F917F916F915F914F9169
:1037A0003F912F910F900FBE0F901F9018951F9271
:1037B0000F920FB60F9211242F938F939F93EF9335
:1037C000FF93E0916203F09163038081E0916803CD
:1037D000F091690382FD12C0908180916B038F5F2D
:1037E0008F7320916C03821751F0E0916B03F0E02E
:1037F000EE5AFC4F958F80936B0301C08081FF913F
:10380000EF919F918F912F910F900FBE0F901F906E
:1038100018958091E0028823A9F140910901509107
:103820000A0160910B0170910C012AE934E080914A
:103830009A0690919B060E94DB15811102C080E0E0
:1038400008954091E1025091E2026091E30270918B
:10385000E402411551056105710591F02AE934E052
:1038600080919A0690919B060E94DB15882339F37C
:103870001092E1021092E2021092E3021092E4022E
:103880001092E00281E008958F929F92AF92BF92D2
:10389000EF92FF920F931F93CF934B015C01C42FC4
:1038A0008091090190910A01A0910B01B0910C0146
:1038B00088159905AA05BB0501F10E94091C811113
:1038C00002C080E020C08AE9E82E84E0F82E00E003
:1038D00012E020E030E0B501A40180919A069091B9
:1038E0009B060E944214882361F380920901909202
:1038F0000A01A0920B01B0920C018091E002C82B4A
:10390000C093E00281E0CF911F910F91FF90EF9063
:10391000BF90AF909F908F9008954F925F926F925B
:103920007F928F929F92AF92BF92CF92DF92EF924F
:10393000FF920F931F93CF93DF93EC014230510519
:103940006105710510F480E078C089859A85AB85A2
:10395000BC850196A11DB11D84179507A607B70761
:1039600090F3CB88DC88ED88FE888F89803129F43C
:10397000BB27A72F962F852F09C0DB01CA01E7E0DF
:10398000B695A79597958795EA95D1F7480159017E
:103990002A013B01C80ED91EEA1EFB1E80910901B7
:1039A00090910A01A0910B01B0910C01C816D906A3
:1039B000EA06FB0681F48F898031A9F4B301A201E4
:1039C000552766277727440F551FFA01E656FB4F08
:1039D0009182808219C040E0C701B6010E94441C58
:1039E0008111E9CFB0CFB301A2014F7755276627E8
:1039F0007727440F551F440F551FFA01E656FB4F1A
:103A000080829182A282B3828091E0028160809361
:103A1000E0028A89823080F08D819E81AF81B885F5
:103A2000C80ED91EEA1EFB1EC092E102D092E2022D
:103A3000E092E302F092E40281E0DF91CF911F91E6
:103A40000F91FF90EF90DF90CF90BF90AF909F903D
:103A50008F907F906F905F904F9008958F929F927C
:103A6000AF92BF92CF92DF92EF92FF920F931F938C
:103A7000CF93DF93FC0181859285A385B485019660
:103A8000A11DB11D84179507A607B70710F480E0A4
:103A90005BC083889488A588B6888789803129F49B
:103AA000BB27A72F962F852F09C0DB01CA01C7E0CE
:103AB000B695A79597958795CA95D1F7E9016A01BB
:103AC0007B018F01BC01CD01680D791D8A1D9B1DF5
:103AD0008090090190900A01A0900B01B0900C0118
:103AE000681579058A059B0591F4F801878980316D
:103AF000A1F4DD24EE24FF24C601880F991FFC01E8
:103B0000E656FB4F80819181A0E0B0E018C040E014
:103B10000E94441C8111E9CFBACFE894C7F8DD2494
:103B2000EE24FF24C601880F991F880F991FFC01FE
:103B3000E656FB4F80819181A281B381BF7088835B
:103B40009983AA83BB8381E0DF91CF911F910F916D
:103B5000FF90EF90DF90CF90BF90AF909F908F90AD
:103B600008952F923F924F925F926F927F928F9221
:103B70009F92AF92BF92CF92DF92EF92FF920F93FC
:103B80001F93CF93DF93CDB7DEB72B970FB6F89483
:103B9000DEBF0FBECDBF7C01FE013196CE010C967B
:103BA0006F0130E23193E817F907E1F7DA0130E00D
:103BB00087E09D91992331F19E3231F48A3009F4E6
:103BC0006BC138E08AE0F5CFE2E9F1E044914423AB
:103BD00021F031969413FACF5FC1831708F45CC1CA
:103BE0004FED490F4E3508F057C141E0430FF60144
:103BF000E30FF11D3FE9390F3A3108F490529083F9
:103C0000342FD7CF8981803209F446C1322E8B01FF
:103C1000DB015B968D919C915C97F701948F838F6C
:103C200016961D921D921D921C921997FB011286E9
:103C3000138614861586B12CF80182859385A48598
:103C4000B585438954896589768984179507A607C0
:103C5000B70708F05BC025E0B695A79597958795BF
:103C60002A95D1F7F82FFF70AF2ED80115968C91B9
:103C7000823008F411C1C8010E94821897FD0CC15E
:103C8000F80182859385A485B5854F96A11DB11D48
:103C900082879387A487B587F0E2AF9EB001112495
:103CA00066567B4F6115710509F4F6C0DB018C91F6
:103CB000882319F0853EC1F4F1C0B1100EC0F701A0
:103CC000A28A8091090190910A01A0910B01B09103
:103CD0000C0186879787A08BB18BDB018C918823A1
:103CE00099F0BB24B394A8CF4BE050E0C6010E94EA
:103CF0003234892B09F0A0CF832D8073803309F4EF
:103D0000CBC0432D6A2DC4C0BB24B394832D8271D4
:103D1000823109F0C1C0BB20C1F0F701668577850B
:103D20008089918941E00E94441C882309F4B4C031
:103D3000D70152968C91B0E28B9FC0011124865618
:103D40009B4F009709F078C0A7C0F80185818230A9
:103D500009F4A2C0C8010E949412882309F49CC0EF
:103D6000D8015B96ED91FC915C9716968D909D9095
:103D7000AD90BC901997B2E08B1A9108A108B108D8
:103D8000058404C0880C991CAA1CBB1C0A94D2F799
:103D900086859785A089B189880E991EAA1EBB1EAB
:103DA0002480E1E08E1A9108A108B108222009F1CF
:103DB00024013501420C511C611C711C0E94091C1C
:103DC000882309F469C0EAE9F4E0119226E0EA39AF
:103DD000F207D9F74092090150920A0160920B0153
:103DE00070920C018091E00281608093E0022A943D
:103DF000DDCFD8015B96ED91FC915C9780E092E07D
:103E0000A0E0B0E0058404C0880F991FAA1FBB1F63
:103E10000A94D2F7F8014389548965897689840F19
:103E2000951FA61FB71F838B948BA58BB68BD701CD
:103E300052961C928AE994E020E2FC0111922A95A4
:103E4000E9F72BE0F601DC0101900D922A95E1F7EC
:103E500021E238E2DC0151963C932E93509740E0EA
:103E600058E01F965C934E931E9753963C932E9367
:103E7000529759963C932E93589757965C934E932E
:103E800056970E94091C882339F0432DF701628957
:103E9000C7010E948B1105C080E003C0B11021CF83
:103EA0000ECF2B960FB6F894DEBF0FBECDBFDF91BD
:103EB000CF911F910F91FF90EF90DF90CF90BF9027
:103EC000AF909F908F907F906F905F904F903F90BA
:103ED0002F900895009769F0FC0101900020E9F708
:103EE0003197AF01481B590BBC0182E593E00C945C
:103EF000CF1880E090E0089581E692E00C946A1F6C
:103F0000282F30915103313208F04AC080912D039F
:103F10008111FCCF9091500342E040932D032093F8
:103F20002C032FEF20932B0310922A0330932903A5
:103F3000E0E3F3E0A9E0B3E020E0321721F04191A3
:103F40004D932F5FFACF1092080320910803990F29
:103F5000922B9093080390910703913061F4109293
:103F60000703909108039093BB009091BC0093FDD0
:103F7000F8CF95EC01C095EE9093BC0090912D0385
:103F80009230E1F390912B039F3F79F080912B03C6
:103F9000803241F080912B03803331F084E005C002
:103FA00081E003C082E001C083E010922F031092F1
:103FB000510310922E0308950F931F93CF938C01FA
:103FC00081E080932E0388E68093500310922F03A4
:103FD0001092510360E08AE394E00E94B701F80177
:103FE0002581CAE0822F6C2F0E942533682F660F2F
:103FF000860F880F682F620F8AE394E00E94B70152
:10400000F8012481822F6C2F0E942533682F660FC0
:10401000860F880F682F620F8AE394E00E94B70131
:10402000F8012381822F6C2F0E942533682F660FA1
:10403000860F880F682F620F8AE394E00E94B70111
:1040400060E08AE394E00E94B701F8012281822FA8
:104050006C2F0E942533682F660F860F880F682FFC
:10406000620F8AE394E00E94B701F8012181822F58
:104070006C2F0E942533682F660F860F880F682FDC
:10408000620F8AE394E00E94B701F8012081822F39
:104090006C2F0E942533682F660F860F880F682FBC
:1040A000620F8AE394E00E94B70181E0CF911F91F3
:1040B0000F910C94801F0F931F93CF93DF93CDB775
:1040C000DEB70DB71EB72DB73EB7205231090FB678
:1040D000F8943EBF0FBE2DBFEDB7FEB7B096E07EA1
:1040E000608341E050E0BF010E94CF020FB6F89418
:1040F0001EBF0FBE0DBFDF91CF911F910F9108958D
:10410000FF920F931F93CF93DF93EC01F62E142FA2
:10411000052F8FA1882321F082E590E00E940703FC
:1041200060E08DA10E94322662E0CE010E945B20F9
:104130006F2DCE010E945B20602FCE010E945B207C
:10414000612FCE010E945B2061E08DA10E9432268A
:104150008FA1882339F0DF91CF911F910F91FF90AC
:104160000C94B702DF91CF911F910F91FF900895AA
:10417000FC0124813581FB014481558124173507D9
:1041800021F5FC0180819181FB01608171810097A3
:1041900019F061157105A1F46115710549F0232B22
:1041A000B1F0FB01808190E09195819591090AC061
:1041B000009769F0232B59F0FC01808190E002C048
:1041C0000E946D3421E0892B19F020E001C021E02C
:1041D000822F089590912D039111FCCF982F813259
:1041E00008F090E281E080932D0380932C032FEF61
:1041F00020932B0310922A03290F209329038093E5
:10420000080380910803806D809308038091070361
:10421000813061F410920703809108038093BB0002
:104220008091BC0083FDF8CF85EC01C085EE8093C2
:10423000BC0080912D038130E1F380912A0389171E
:1042400010F490912A03E9E0F3E0A7EEB2E080E0F9
:10425000891721F021912D938F5FFACF1092E602FA
:104260008093E50208950F931F93CF93DF938C0102
:10427000C0E0D0E0F801EC0FFD1F6491662341F02F
:1042800082E593E00E946219892B11F02196F2CF0A
:10429000CE01DF91CF911F910F910895CF93DF93BE
:1042A0000E943321EC010E947C1F8C0F9D1FDF9127
:1042B000CF9108950F931F93CF93DF93FC01C48197
:1042C000D581209719F4FB01108211C0415051098A
:1042D0004C175D0708F4EA018B01FC0160817181D4
:1042E000AE01C8010E948B34C00FD11F1882DF912C
:1042F000CF911F910F91089548E058E460E082E566
:1043000094E00E948020109295048AE794E00C9437
:10431000501880919504811107C08AE794E00E94AB
:10432000431891E08927089580E00895DC015996AB
:10433000ED91FC915A97309759F08581823040F089
:1043400016821782108611861286138614861586A9
:104350000895EF92FF920F931F93CF93DF93EC0199
:104360007B018A011B821A8288EE93E0A0E0B0E014
:104370008C839D83AE83BF838FE391E09983888391
:104380008DE190E00E94DA2F9A8F898F009779F063
:104390002DE1F701DC0101900D922A95E1F74CE047
:1043A00050E0B801CE010C960E948B34188EDF913C
:1043B000CF911F910F91FF90EF9008954F925F92D0
:1043C0006F927F92AF92BF92CF92DF92EF92FF9265
:1043D0000F931F93CF93DF9300D000D0CDB7DEB7FC
:1043E0008C0149835A836B837C835901C12CD12C66
:1043F0007601412C82E0582E612C712C49815A8122
:104400006B817C819E012F5F3F4FC8010E942E1D52
:10441000882351F1D301C201F801058404C0880F3B
:10442000991FAA1FBB1F0A94D2F7C80ED91EEA1EF5
:10443000FB1E49815A816B817C818789803129F0FB
:1044400088EF9FEFAFEFBFE004C088EF9FEFA0E0E1
:10445000B0E0481759076A077B0780F2F501C08270
:10446000D182E282F38281E00F900F900F900F9043
:10447000DF91CF911F910F91FF90EF90DF90CF9040
:10448000BF90AF907F906F905F904F900895CF92C4
:10449000DF92EF92FF920F931F93CF93DF93CDB7ED
:1044A000DEB7C756D1090FB6F894DEBF0FBECDBF39
:1044B0008C016B01FB01E18CF28CF701858182306C
:1044C00008F470C082859385A485B5858F7199277E
:1044D000AA27BB27892B8A2B8B2B09F063C040E2CC
:1044E00050E0BE016F5F7F4FC7010E94D61480323B
:1044F00009F058C08981882309F454C0853E79F3B6
:104500008E3269F38C8583FDEACF22961FAE1EAEF4
:10451000229783E691E09FAF8EAF24961FAE24973B
:10452000FE01319680E090E03EE22191203291F050
:10453000983041F4ABE5B0E0AC0FBD1FA80FB11D42
:104540003C938F5FABE5B0E0AC0FBD1FA80FB11D72
:104550002C938F5F9F5F9B3041F7EBE5F0E0EC0F12
:10456000FD1FE80FF11D1082F601618D728D21E0B3
:10457000AE01455A5F4FCE01CE960E94B11D8823F1
:1045800089F0BE01625C7F4FCE0181960E94F217D6
:10459000AE01455A5F4FBE016F5D7F4FC8010E945B
:1045A000A92103C0C8010E946F18C801C959DF4F73
:1045B0000FB6F894DEBF0FBECDBFDF91CF911F9134
:1045C0000F91FF90EF90DF90CF900895FC0187A1AD
:1045D000882319F080E00C94C80288E090910000D4
:1045E0009091000090930000909100009093000043
:1045F0008150A1F7809100008093000080E0089531
:10460000CF93DF93FC012581222311F080E049C084
:10461000EC01809114048031C1F482E08583178A13
:10462000108E118E128E8091150490911604A0E0C8
:10463000B0E025E0880F991FAA1FBB1F2A95D1F76C
:10464000838B948BA58BB68B19C08032F9F683E0EF
:10465000858340911704509118046091190470915A
:104660001A04478B508F618F728F9F012D5E3F4FD1
:104670008DEF93E00E94DE21882341F28DEF93E0DD
:104680009C8F8B8F81E08C831E821F8218861986F7
:104690001A861B861C861D861E861F86188A198A06
:1046A0001A8ADF91CF9108950F931F93CF93DF93D1
:1046B000EC01162F8FA1882321F082E590E00E9463
:1046C000070360E08DA10E94322663E0CE010E94C4
:1046D0005B20612FCE010E945B2083E290E0019776
:1046E000F1F7CE010E94E622082F10E0102F0027DC
:1046F000CE010E94E622082B61E08DA10E943226A5
:104700008FA181110E94B702C801DF91CF911F9143
:104710000F910895CF93DF93EC018CA187FD0DC01D
:1047200060E00E94322664E670E080E090E00E9443
:104730009D2661E08CA10E94322661E08DA10E943D
:10474000322661E08EA10E94322664E670E080E0AD
:1047500090E00E949D2644E058E060E0CE010E9477
:10476000802064E670E080E090E00E949D2664E690
:1047700070E080E090E00E949D2640E050E663E01B
:10478000CE010E948020F89448E258E26BE0CE010E
:104790000E9480207894DF91CF9108958F929F920C
:1047A000AF92BF920F931F93CF93DF93CDB7DEB736
:1047B000A1970FB6F894DEBF0FBECDBF19A242304D
:1047C00008F44AE08E010F5D1F4F842E912CA12C1E
:1047D000B12CA50194010E94B232E62FB901CA01A1
:1047E00001501109EA3014F4E05D01C0E95CD80120
:1047F000EC93232B242B252B61F7C8010E946A1F01
:10480000A1960FB6F894DEBF0FBECDBFDF91CF915A
:104810001F910F91BF90AF909F908F9008952F920E
:104820003F924F925F926F927F928F929F92AF9240
:10483000BF92CF92DF92EF92FF920F931F93CF938D
:10484000DF93CDB7DEB7C756D1090FB6F894DEBFF8
:104850000FBECDBF4C016B01A6964FAFA69719A214
:1048600018A283E691E09F8F8E8F1BA21C821B8271
:104870009A8389831E825E018EE1A80EB11CC50158
:104880000E94002376018E010F5F1F4F2501180142
:104890006FE270E0C7010E946234009709F442C0E1
:1048A000F70120812F3221F4FFEFEF1AFF0AF0CF3A
:1048B0008E198D3008F08CE0682E712CA301B701A1
:1048C000CE01885A9F4F0E948B34E8E5F0E0EC0F50
:1048D000FD1FE60DF71D1082C8010E948812F80125
:1048E0008581882351F01EAE1DAE83E691E09CAF1A
:1048F0008BAF21961FAE219721C021E0AE01485A0F
:104900005F4FB201C8010E94B11D882361F3E60C1C
:10491000F71CC2010E948812942D852D2801092FB1
:10492000182FB6CFC7018C199D09A8969FAF8EAFDF
:10493000A897B201CE01CB960E94F217A896EEADD1
:10494000FFADA897CE0EDF1EF6018081811109C050
:10495000BE01655C7F4FC1010E94F21745ED51E039
:1049600032C019A218A283E691E09F8F8E8F1BA2FE
:1049700021968FAD2197811104C0C4010E946F1848
:1049800026C0A6962FADA697A601BE01655C7F4FF7
:10499000C5010E94B11D882381F3CE01CB960E94F0
:1049A0008812A6968FADA6978670863039F449A9ED
:1049B0005AA96BA97CA9C5010E94F410B501C101D7
:1049C0000E94F217A601B101C4010E94A921C401ED
:1049D000C959DF4F0FB6F894DEBF0FBECDBFDF91D0
:1049E000CF911F910F91FF90EF90DF90CF90BF90EC
:1049F000AF909F908F907F906F905F904F903F907F
:104A00002F9008951F93CF93DF93CDB7DEB7CB548C
:104A1000D1090FB6F894DEBF0FBECDBF0E94892129
:104A2000811102C00E947C2140E065ED71E0CE0161
:104A30004C960E940F24CE014C960E94962110E0C5
:104A4000BE01645E7F4FCE0101960E944722CE01D7
:104A500001960E944318882309F475C0EA8DFB8DE6
:104A6000309721F08581823008F068C0CE010D9624
:104A70000E94BD09892B09F461C0BE01635F7F4FAD
:104A8000CE01805C9F4F0E94091B28961FAE1EAE70
:104A900028972A961FAE1EAE2A972C961FAE1EAEE2
:104AA0002C974AE0BE01695C7F4F812F90E00E9405
:104AB0005F32BE01695C7F4FCE018A5B9F4F0E94CF
:104AC000D31ABE016A5B7F4FCE01C7960E94EF1AD0
:104AD00041E050E064E672E0CE01C7960E94721A8F
:104AE000882309F443C026964EAD5FAD26972296E3
:104AF0006EAD7FAD2297CE01C7960E94721A8111CA
:104B000004C0CE01C7960E94A01A4BAD5CAD6FA940
:104B100078AD82E593E00E94CF180E947C1FCE0101
:104B2000C7960E94EA1ACE018A5B9F4F0E94EA1A3A
:104B3000CE01805C9F4F0E94EA1A1F5FCE01019652
:104B40000E9450187DCFCE014C960E949621CE0136
:104B50004C960E945018C55BDF4F0FB6F894DEBF2D
:104B60000FBECDBFDF91CF911F910895CE01C796A3
:104B70000E94A01AB8CF833081F028F4813099F0D8
:104B80008230A1F008958730A9F08830B9F08430E0
:104B9000D1F4809180008F7D03C0809180008F7759
:104BA00080938000089584B58F7702C084B58F7D8F
:104BB00084BD08958091B0008F7703C08091B000CC
:104BC0008F7D8093B00008953FB7F8948091A1063F
:104BD0009091A206A091A306B091A40626B5A89B29
:104BE00005C02F3F19F00196A11DB11D3FBFBA2F7F
:104BF000A92F982F8827820F911DA11DB11DBC01DF
:104C0000CD0142E0660F771F881F991F4A95D1F7A3
:104C10000895CF93DF93282F30E0F901E851FE4F3C
:104C20008491F901EC52FE4FD491F901E054FE4F0A
:104C3000C491CC2391F081110E94BB25EC2FF0E0B0
:104C4000EE0FFF1FEA54FE4FA591B491EC91ED23B6
:104C500081E090E021F480E002C080E090E0DF910C
:104C6000CF9108951F93CF93DF93282F30E0F90160
:104C7000E851FE4F8491F901EC52FE4FD491F901B5
:104C8000E054FE4FC491CC23C1F0162F81110E9435
:104C9000BB25EC2FF0E0EE0FFF1FE455FE4FA59172
:104CA000B4919FB7F894111104C08C91D095D8237A
:104CB00002C0EC91DE2BDC939FBFDF91CF911F915F
:104CC0000895CF93DF9390E0FC01EC52FE4F2491C6
:104CD000FC01E054FE4F8491882361F190E0880F3D
:104CE000991FFC01EE55FE4FC591D491FC01E4558E
:104CF000FE4FA591B491611109C09FB7F8948881C6
:104D0000209582238883EC912E230BC0623061F4BE
:104D10009FB7F8948881322F309583238883EC9154
:104D20002E2B2C939FBF06C08FB7F894E8812E2BB3
:104D300028838FBFDF91CF9108958F929F92AF927A
:104D4000BF92CF92DF92EF92FF926B017C010E94A3
:104D5000E4254B015C01C114D104E104F104F1F03C
:104D60000E94E425DC01CB0188199909AA09BB0935
:104D7000883E9340A105B10570F321E0C21AD10825
:104D8000E108F10888EE880E83E0981EA11CB11C92
:104D9000C114D104E104F10419F7DDCFFF90EF90C5
:104DA000DF90CF90BF90AF909F908F9008952FB7D6
:104DB000F89460919D0670919E0680919F06909157
:104DC000A0062FBF08951F920F920FB60F921124C5
:104DD0002F933F938F939F93AF93BF9380919D06A3
:104DE00090919E06A0919F06B091A00630919C06DE
:104DF00023E0230F2D3720F40196A11DB11D05C01E
:104E000026E8230F0296A11DB11D20939C068093D6
:104E10009D0690939E06A0939F06B093A006809156
:104E2000A1069091A206A091A306B091A4060196B6
:104E3000A11DB11D8093A1069093A206A093A30685
:104E4000B093A406BF91AF919F918F913F912F9105
:104E50000F900FBE0F901F901895FC0190819053FA
:104E60009A3008F090E0818180532AE0929F800D73
:104E7000112408952F923F924F925F926F927F92EA
:104E80008F929F92AF92BF92CF92DF92EF92FF925A
:104E90000F931F93CF93DF93CDB7DEB72C970FB649
:104EA000F894DEBF0FBECDBF8C015A874987698356
:104EB0007A8321E030E03C832B83C12CD12C1C86EB
:104EC0001B868B859C85E985FA858E179F0709F4DB
:104ED00044C0DB84CC8409964397C0F08B859C85C5
:104EE0008D599F4F873C9105A0F08B859C858951FA
:104EF0009C4F8F3C974080F08B859C85815F984DBF
:104F00008F319E4460F086E090E00BC082E090E03C
:104F100008C083E090E005C084E090E002C085E036
:104F200090E00E94DA2F7C01892B09F4ABC0CF926C
:104F3000DF928BE991E09F938F93FF92EF920E9413
:104F4000B4340F900F900F900F900F900F9097FF29
:104F500006C0C7010E94723095C0C6019BC0E9819E
:104F6000FA8121903190FA83E9830115110509F442
:104F700049C02114310421F483E6282E82E0382E22
:104F8000F10101900020E9F731979F0122193309BF
:104F90003E832D83F70101900020E9F73197CF017F
:104FA0008E199F0998878F83C801412C512CB1011C
:104FB0000E949A34009741F0ED81FE818E0F9F1F71
:104FC000FFEF4F1A5F0AF3CFF80101900020E9F7D5
:104FD0008F8198852D813E81821B930B849D90014A
:104FE000859D300D949D300D1124CF01801B910BB8
:104FF000820F931F0E94DA2F6C01009719F04C0169
:10500000380103C0C12CD12C24C031E0431A51080F
:10501000E0F0B101C3010E949A345C01A618B70800
:10502000A501B301C4010E948B34B7018A0D9B1DF9
:105030000E9476348F809884880E991EED81FE81BF
:10504000AE0EBF1E6A0C7B1CE0CFB301C4010E94F0
:105050007634C7010E9472302B813C81232B19F4D6
:10506000C8010E947230C114D10419F480E090E0AC
:1050700011C08B859C8501969C878B871C821B8227
:1050800086011FCF2B813C81232B81F7C8010E9411
:105090007230ECCF2C960FB6F894DEBF0FBECDBFAA
:1050A000DF91CF911F910F91FF90EF90DF90CF9004
:1050B000BF90AF909F908F907F906F905F904F9038
:1050C0003F902F900895CF93DF93009759F0EC0114
:1050D0008881882351F0082E000C990B0E942A34F5
:1050E0008993F6CF81E090E002C080E090E0DF910C
:1050F000CF9108958CE494E00C94EA1ACF93DF9357
:10510000CDB7DEB7A6970FB6F894DEBF0FBECDBF02
:10511000789484B5826084BD84B5816084BD85B592
:10512000826085BD85B5816085BD80916E0081609E
:1051300080936E0010928100809181008260809344
:105140008100809181008160809381008091800046
:105150008160809380008091B10084608093B10071
:105160008091B00081608093B00080917A0084606B
:1051700080937A0080917A00826080937A00809197
:105180007A00816080937A0080917A0080688093B1
:105190007A001092C100E0916203F091630382E013
:1051A0008083E0915E03F0915F031082E0916003E1
:1051B000F091610380E1808310926A03E0916603BD
:1051C000F091670386E08083E0916403F0916503CA
:1051D000808180618083E0916403F0916503808128
:1051E00088608083E0916403F0916503808180682A
:1051F0008083E0916403F091650380818F7D8083DB
:105200008EE791E00E944E2186E791E00E944E21B8
:1052100083E691E00E944E218CE591E00E944E21B0
:105220006DE270E08CE494E00E944B1A1092E6026A
:105230001092E50210922F031092510310922D0349
:1052400011E010932C031092070361E082E10E94A9
:10525000322661E083E10E9432268091B9008E7F80
:105260008093B9008091B9008D7F8093B90088E464
:105270008093B80085E48093BC008CE591E0909326
:10528000AF028093AE028DE591E09093AD028093E2
:10529000AC0210932E0388E68093500310922F03E4
:1052A0001092510360E08AE394E00E94B70181E02C
:1052B0000E94801F81E090E00E94EA208AE394E04F
:1052C0000E946E0187FF67C089EF91E00E946A1F0C
:1052D0000E947C1F4BE050E061E471E0CE0101963A
:1052E0000E944132CE010A960E942D278F8FE981BC
:1052F0008E2FEE0F990BAA0BBB0BFC01E154F109A9
:10530000E331F10540F5EC5CFF4F0C9459338A8191
:10531000813639F08B818E3611F087E01BC086E034
:1053200019C081E017C082E015C08B81823711F06F
:1053300088E010C084E00EC08B81823711F085E0D8
:1053400009C083E007C089E005C08AE003C08BE0A4
:1053500001C08CE088A3CE0105960E942D2789A369
:1053600048E050E068E371E0CE0101960E944132CE
:10537000CE0101960E942D278AA3CE0104960E9499
:105380002D278BA3CE0107960E942D278CA3CE013B
:105390004F960E94DC1F61E0809196040E94612676
:1053A00061E0809196040E9432268091760487FD08
:1053B00008C061E00E94612660E0809176040E944E
:1053C000322661E0809177040E94612661E080913D
:1053D00077040E94322661E0809178040E94612661
:1053E00061E0809178040E94322660E0809172042E
:1053F0000E94612680917904811110C061E0809142
:1054000073040E94612661E0809175040E94612608
:1054100060E0809174040E94612602C00E94C00373
:1054200082E594E00E948A2361E082E594E00E9494
:10543000542364E0969587956A95E1F7182F1F70BD
:10544000143009F0FFCF82E594E00E948A2360E0E7
:1054500082E594E00E945423AC01406260E082E562
:1054600094E00E948020809172040E940926892B7A
:10547000D1F380917904882321F080E591E00E94A6
:10548000070360E0809178040E94322663E582E59C
:1054900094E00E945B206FEE82E594E00E945B2026
:1054A0006EE682E594E00E945B2064E482E594E08D
:1054B0000E945B2060E082E594E00E945B2060E057
:1054C00082E594E00E945B2060E082E594E00E9427
:1054D0005B2060E082E594E00E945B2061E08091C7
:1054E00078040E9432268091790481110E94B702CB
:1054F00064EF71E080E090E00E949D268091790445
:10550000882321F080E591E00E94070360E080910C
:1055100078040E94322665E482E594E00E945B20D4
:1055200068E782E594E00E945B2069E682E594E00A
:105530000E945B2064E782E594E00E945B2060E0CB
:1055400082E594E00E945B2060E082E594E00E94A6
:105550005B2060E082E594E00E945B2060E082E5F1
:1055600094E00E945B2061E0809178040E943226E2
:105570008091790481110E94B702809120048823D0
:1055800021F08BE194E00E9488121092FC031092AB
:10559000FA031092F7031092F60389E08093F50363
:1055A0000E94D7267B0161E08091F5030E9461266D
:1055B00061E08091F5030E9432260E94C00382E5DB
:1055C0008093EF031092F0038091EF039091F0032A
:1055D0000E9407030AE08FEF0E94C8020150D9F72A
:1055E0000E94B70281EF93E00E94971320E030E021
:1055F000A90160E081EF93E00E94F313082F8093EC
:10560000FB03813049F00E94D7266E197F09613D66
:10561000774060F381E053C02AEA31E040E050E097
:1056200068E081EF93E00E94F31382FF03C00093D0
:10563000FC030DC00E94BB138093FB031150D1F7F4
:105640008A3A11F082E03BC082E08093FC038091B3
:10565000FC03823021F0812C912C540105C0812C57
:10566000912CA12C50E4B52E20E030E0A90167E395
:1056700081EF93E00E94F313A501940169E281EFA9
:1056800093E00E94F3138093FB03882349F00E9468
:10569000D7266E197F09613D774030F388E00FC04F
:1056A0008091FC03823001F520E030E0A9016AE33B
:1056B00081EF93E00E94F313882341F086E080930A
:1056C000F60381EF93E00E94AD1328C00E94BB1344
:1056D000807C803C19F483E08093FC030E94BB1320
:1056E0000E94BB130E94BB1381EF93E00E94AD1395
:1056F00080E58093EF031092F00381E00E94AC2ECE
:10570000882339F08BE194E00E940023811107C0C7
:1057100005C080E00E94AC2E8111F4CFFFCF84E55C
:1057200091E00E944E210E9402258DE491E00E94AA
:105730004E21F89444E154E16BE082E594E00E944C
:105740008020789482E594E09093B3028093B20233
:1057500080917204823019F0833059F564C280E080
:105760002FB7F894813009F460C291E03091B00213
:10577000932B9093B0029091B102911103C091E0EC
:105780009093B1022FBFE82F082E000CFF0BEE0FF5
:10579000FF1FE050FF4F22E933E031832083813047
:1057A00009F445C2809169008C7F81608093690013
:1057B000E89ACE0101960E94F60386E0FE0131963A
:1057C000A6E4B4E001900D928A95E1F73DE0832EC6
:1057D00032E0932E0E94D7260091DB021091DC026A
:1057E0002091DD023091DE026B017C01C01AD10AEA
:1057F000E20AF30A48EEC41643E0D406E104F104D9
:1058000008F4CCC16093DB027093DC028093DD026C
:105810009093DE0280919504CE0101960E94F603DA
:1058200086E0FE013196A6E4B4E001900D928A95DF
:10583000E1F780910801882309F4D8C18EEF9FEF2A
:105840009093050180930401C12CD12C7C2CBE01C6
:105850006F5F7F4F8C2D0E944F061EA21DA2A5EBED
:10586000B2E0EAE11D92EA95E9F718A21F8EAE01B7
:10587000415E5F4F60E2CE0101960E94AC067C0162
:105880008F8D98A1069719F09EA28DA2EDC08E0172
:105890000B5D1F4F2CE330E040E050E065EB72E021
:1058A000D7018D919C910E94B7088DA19EA1892B53
:1058B00009F0DAC02CE330E040E050E06DEB72E03C
:1058C000F701828193810E94B7088DA19EA1892B47
:1058D00009F0CAC028E130E040E050E065EC72E039
:1058E000D70114968D919C9115970E94B7088DA1B0
:1058F0009EA1892B09F0B8C0F701828593850E948B
:10590000632847E050E06DE271E0D7011A968D916F
:105910009C911B970E943A275C01FC01019000209A
:10592000E9F7CF0102978A159B0531F4F5018081D3
:105930008F3311F42AE220838E010B5D1F4F28E084
:1059400030E040E050E068EC72E0C5010E94B7082A
:10595000C5010E9472308DA19EA1892B09F084C0DF
:1059600067E070E088EC92E00E947E08882359F09E
:1059700060E070E088EC92E00E949B088091C80291
:105980008F778093C802D7011696ED91FC911797F7
:10599000DF010D900020E9F7CD0102978E179F07D8
:1059A00029F480818F3311F4BAE2B0838E010B5D4C
:1059B0001F4F20E230E041E050E069EC72E0CF019F
:1059C0000E94B7088DA19EA1892B09F04DC0F70157
:1059D00000851185C8010E946328892B09F044C005
:1059E0004DE050E063E171E0C8010E943A275C019C
:1059F0000097D1F18E010B5D1F4F2DE030E041E0AB
:105A000050E06DEC72E00E94B708C5010E94723050
:105A100001E010E0B8018DEC92E00E947E0888233E
:105A2000F1F0B801615071098DEC92E00E949B0881
:105A3000F80123E0F595E7952A95E1F7E353FD4F4B
:105A4000C8018770992721E030E002C0220F331F80
:105A50008A95E2F7C90180959081892380830F5F41
:105A60001F4F0D301105B1F66F8D78A1C7010E944F
:105A70007B068DA19EA1892B09F06FC0009148047F
:105A8000F090470490914604A92EB12C10E0E6E86E
:105A9000F1E081E0302E412E8F1530F42491020F79
:105AA000111D8F5F3196F8CF32E03F1520F49370CF
:105AB00011F40F5F1F4F20904904E0904A04609159
:105AC0004B0470E085EB92E00E947E08582E6E2D0C
:105AD00070E08DEB92E00E947E08682E622D70E0EF
